:020000040000FA
:0600000002011A022EBBF2
:03002B000236702A
:030033000236484A
:03005300022F2E4B
:03006B000235EF6C
:03007B0002361733
:10008300022D27E5C754F84401F5C7790122000082
:100093000080FB120086B90003020104E479217891
:1000A30008B800028004F709D8FCE479297802B87B
:1000B30000028004F709D8FCE490028178A0790853
:1000C3008002F0A3D8FCD9FA781A90014A7A01BACF
:1000D30000028007E493A3F608DAF97A207B0A90FA
:1000E300014B785379078015E493A3AD82AE838ADD
:1000F300828B83F0A3AA82AB838D828E83D8E9D9C6
:10010300E77582927583A5740412012C758291752B
:100113008300740012012C75D00075813F7518811E
:10012300751902759F00020096C09FF59FE473D076
:100133009F22D083D082C09FE493C0E0740193C018
:10014300E0740293F59F2201CDCCCC3D0000803FAB
:10015300FF0000B4000028002800283075A000A08C
:1001630000A000A00000080008E001F0001000104B
:10017300001000100010001000500050005000103C
:10018300001000D0070000000000000F0001000570
:1001930000307507001000010081FF00000000FF20
:1001A300AD09CB09B309FF02020208025000A00007
:1001B3000000E80302CE830100009A8302D2830188
:1001C30000007F0A02C283010000BD0202D2830144
:1001D3000000800A02C083010000D30202D283011F
:1001E3000000810A02BE83010000D50202D283010E
:1001F3000000820A02BC83080000D60202D28301F7
:100203000000830A02BA83010000840AFF0100FF91
:10021300650F650F650F650F650F650F650F650F3B
:10022300650F650F650F650F650FF9111112F31156
:10023300FFFF0A0953656E736F72546167051250AD
:10024300002003020A00020105544920424C4520C4
:1002530053656E736F722054616700D007E803E83B
:1002630003E803E803E80304001B14000093149954
:10027300149F14AB14A514B114B714BD14C314C93B
:100283001412416363656C2E2044617461000A415A
:100293006363656C2E20436F6E662E000A0A41630A
:1002A30063656C2E20506572696F640002CE830112
:1002B3000000AC8302D283010000590B106182015C
:1002C30000007E0702C483030000810702C6830186
:1002D30000005A0B02D283010000660B10718203E7
:1002E3000000870702C683010000670B02D2830167
:1002F3000000740B108182030000750B02C683019A
:100303000000760B124261726F6D2E20446174619E
:10031300000A4261726F6D2E20436F6E662E0002DB
:100323004261726F6D2E2043616C6962722E000A06
:100333000A4261726F6D2E20506572696F6400020C
:10034300CE83010000B28302D283010000DC0B10D4
:10035300B1820100008A0702C4830300008E0702F2
:10036300C683010000DD0B02D283010000E90B10FC
:10037300C182030000940702C683010000EA0B0256
:10038300D283010000070C10E182030000080C0275
:10039300C683010000090C02D283010000F70B1091
:1003A300D182010000950702C483030000A5070260
:1003B300C683010000F80B12436F6E6E2E2050614E
:1003C30072616D730008436F6E6E2E20506172610F
:1003D3006D73205265710008446973636F6E6E65B7
:1003E3006374205265710002CE83010000A9830269
:1003F300D2830100008F0C104182010000AD07027F
:10040300C483030000B30702C683010000900C02FB
:10041300D2830100009D0C106181020000B9070224
:10042300C6830100009E0C02D283010000AF0C10B2
:100433002182020000C10702C683010000B00C0143
:10044300E803053F100A124779726F204461746113
:10045300000A4779726F20436F6E662E000A0A47BF
:1004630079726F20506572696F640002CE83010058
:1004730000AF8302D2830100001E0D10A181010091
:1004830000860802C4830300008C0802C6830100AF
:10049300001F0D02D283010000290D10918103007A
:1004A30000920802C6830100002A0D02D2830100D4
:1004B30000350D108181030000360D02C683010053
:1004C30000370D0380000080700061801248756D55
:1004D30069642E2044617461000A48756D69642E55
:1004E30020436F6E662E000A0A48756D69642E20DC
:1004F300506572696F640002CE83010000F98202C5
:10050300D283010000A40D1001810100001D090226
:10051300C483030000210902C683010000A50D0264
:10052300D283010000B10D10F180030000270902FE
:10053300C683010000B20D02D283010000BF0D107B
:100543005181030000C00D02C683010000C10D12DA
:1005530054656D702E2044617461000A54656D709A
:100563002E20436F6E662E000A1E54656D702E207A
:10057300506572696F640002CE83010000A6830296
:10058300D283010000270E10B1800100002A090266
:10059300C4830300002E0902C683010000280E0253
:1005A300D283010000330E1091800300003409024E
:1005B300C683010000340E02D283010000400E10F6
:1005C3008180030000410E02C683010000420E1227
:1005D3004D61676E2E2044617461000A4D61676E40
:1005E3002E20436F6E662E000A0A4D61676E2E2021
:1005F300506572696F640002CE83010000B5830207
:10060300D283010000A70E10E18001000037090228
:10061300C4830300003D0902C683010000A80E0243
:10062300D283010000B30E101181030000430902BD
:10063300C683010000B40E02D283010000C00E1075
:100643003182030000C10E02C683010000C20EFF07
:1006530000013075030201060000000000000000E5
:100663000000000000000000000000000000000087
:1006730000000000FFFF0600800CE80312517561C3
:10068300742044617461000A5175617420436F6E74
:10069300662E000A0A5175617420506572696F6491
:1006A3000002CE830100009D8302D2830100005427
:1006B3000F10D181010000F50902C4830300000576
:1006C3000A02C683010000550F02D2830100005FB6
:1006D3000F10E1810300000B0A02C68301000060D2
:1006E3000F02D2830100006B0F10F1810300006C35
:1006F3000F02C6830100006D0F104B657920507205
:100703006573732053746174650002CE8301000026
:10071300A38302D283010000D10F02CA8300000029
:100723000C0A02C4830300000D0A02C68301000001
:10073300D20F02546573742044617461204368616D
:100743006E676564000A5465737420436F6E66694F
:10075300670002CE83010000A08302D28301000060
:100763000A10101182030000150A02C6830100005B
:100773000B1002D2830100001D10107181030000D1
:100783001D0A02C6830100001E10C503423F1A5111
:10079300123FF304B53F0000803E120135A036003E
:1007A300120135355400120135E15F00120135B4F1
:1007B3008504120135CB8504120135FC8504120131
:1007C300353786041201356186041201358B8604A0
:1007D300120135A28604120135B98604120135D0FF
:1007E3008604120135F986041201350C87041201BF
:1007F300352287041201353587041201355C8704DD
:100803001201350198031201350599031201353D93
:1008130099031201356099031201356B9903120193
:10082300358E99031201359D9A03120135729B038C
:10083300120135ED9B03120135759C03120135B08E
:100843009C03120135E79C03120135759D031201C8
:10085300354E9E03120135AE9E03120135B99E0338
:10086300120135389F031201353B9F031201353EB8
:100873009F03120135CD9F03120135D09F0312014F
:100883003500A0031201352AA00312013518A10374
:10089300120135CAA10312013502FA011201352AE8
:1008A300FA0112013558FA011201358FFA011201CA
:1008B30035EDFA0112013538FB0112013583FB01D5
:1008C300120135C3FB0112013509FC011201353751
:1008D300FC01120135F4FC01120135FEFC01120189
:1008E300350BFD011201353EFD011201350AFE01F2
:1008F30012013516FE011201352EFE0112013538A3
:10090300FE011201351BA20412013529A2041201B2
:100913003541A20412013559A20412013590B202E5
:100923001201353CB302120135B7B302120135D8B7
:10093300B40212013514B502120135BDB50212011C
:1009430035A4B60212013508B8021201355FB802A8
:10095300120135E0B802120135D0B9021201351D7A
:10096300BA02120135A3BA02120135D5BA02120135
:1009730035E9BC021201352BBD0212013549BD0216
:10098300120135CCBD02120135A0BE021201356839
:10099300BF02120135C2C30312013595C40312010C
:1009A300353EC50312013591C50312013541C60316
:1009B300120135CDC603120135B9C703120135E85B
:1009C300C703120135FBC80312013543C9031201E2
:1009D3003518CA0312013554CA0312013570CA030C
:1009E3001201350EA50412013546E5031201355CEB
:1009F300E50312013582E5031201359EE603120178
:100A030035A8E603120135DDE703120135D5E80306
:100A13001201352391041201355A92041201353F14
:100A23009302120135A993021201350895021201AE
:100A3300351895021201354595021201359C950230
:100A43001201354596021201354C970212013516F3
:100A53009802120135769902120135B999021201F1
:100A6300355E9A02120135AB9A02120135D19A0210
:100A7300120135DF9C02120135E49C02120135E9B3
:100A83009E02120135369F02120135A99F021201FF
:100A930035DC9F021201357EA00212013527A10227
:100AA3001201355FA10212013562A102120135AABA
:100AB300A102120135EAA10212013541A20212017B
:100AC3003533F5031201354BF50312013593F50365
:100AD300120135A9F503120135F0F50312013504AE
:100AE300F70312013591F703120135DCF703120105
:100AF30035F99E01120135059F01120135409F0111
:100B0300120135859F0112013545A001120135CB34
:100B1300A00112013535A1011201356EA1011201A7
:100B230035ACA30112013590A50112013576A70159
:100B3300120135B9A80112013507AB0112013519AC
:100B4300AC0112013564AD0112013574AE0112011D
:100B53003591AE01120135CCAE01120135F6AE016D
:100B6300120135B7B3011201354CB4011201359DA1
:100B7300B401120135C4B40112013516B5011201D5
:100B83003534B5011201358EB50112013577B60141
:100B9300120135EDB70112013571B801120135E5C6
:100BA300CA03120135EFCA0312013532CB03120116
:100BB300354DCB03120135DDCB0312013505CC03D3
:100BC30012013542CC0312013579CC03120135A24F
:100BD300CC0312013517CD031201352CCD031201BD
:100BE3003541CD0312013572CD0312013586CD0394
:100BF300120135ABCD03120135E5CD0312013511D9
:100C0300CE0312013549CE03120135C8CE031201BA
:100C13003511CF031201353BCF0312013566CF03E4
:100C230012013502A1041201350080031201352E91
:100C330080031201357C81031201355C82031201AA
:100C4300357B8203120135F882031201353B83039E
:100C5300120135918403120135528503120135D9EE
:100C630087031201357A8803120135708903120153
:100C7300356D8A03120135C78B03120135528C037C
:100C8300120135AF95041201351896041201356C23
:100C93009604120135939604120135C49604120189
:100CA30035BED8031201352BD90312013572D9038E
:100CB3001201358ADA0312013586DB031201356925
:100CC300DC031201353EAC0312013580AC03120183
:100CD3003552AD031201352BAE0312013525AF0397
:100CE30012013507B00312013570B0031201352626
:100CF300B1031201359AB10312013506B203120191
:100D0300352FB203120135A9B20312013542B303E1
:100D1300120135A7B303120135BCB3031201350227
:100D2300B4031201351BB40312013580B40312015D
:100D33003583B4031201353AF20312013562F2032B
:100D4300120135A0F2031201355EF303120135C51A
:100D5300F303120135E1F30312013509F403120120
:100D63003539F40312013548F403120135C5F40390
:100D7300120135EBF4031201352EA3021201350CD7
:100D8300A5021201353EA7021201357AA70212010C
:100D930035A7A70212013591A802120135DCA8027A
:100DA30012013527A90212013539A9021201357939
:100DB300A902120135AEA902120135FCA9021201E2
:100DC300352BAA021201354EAA021201359BAA0243
:100DD30012013520AB021201353AAD021201357909
:100DE300AF02120135BAAF021201355CB102120132
:100DF300359DB10212013510B20212013566B202FD
:100E0300120135F0EB02120135EEEC0212013587C7
:100E1300F302120135A8F50212013573F70212012C
:100E230035DBF802120135D8B80112013587B90153
:100E3300120135B4B901120135FAB9011201353A7B
:100E4300BB01120135D0BC011201354ABD011201AB
:100E53003565BD01120135E0BD011201353ABF010F
:100E63001201359AC001120135A0C10112013501E9
:100E7300C3011201351AC30112013578C3011201EE
:100E83003566C40112013599C40112013509C50142
:100E930012013583C501120135CDC5011201359704
:100EA300C6011201356CC7011201354BC80112018D
:100EB30035D6C80112013544C901120135B8C9013B
:100EC300120135E3C901120135A2CA011201350726
:100ED300CC0112013524CC0112013543CC0112019E
:100EE3003534CD0112013559CD0112013583CD01C0
:100EF300120135FECD0112013558CE01120135C163
:100F0300CF011201356FD001120135B0D0011201AA
:100F1300351CDE021201356ADE0212013576DE026D
:100F230012013554DF0212013585DF02120135B695
:100F3300DF0212013536E0021201356EE0021201C2
:100F430035C0E002120135FDE0021201351AE30259
:100F530012013540E5021201352BE7021201351566
:100F6300E902120135F9FF01120135EFE501120122
:100F7300351FE601120135F8EC011201357DEE0152
:100F83001201357AF40112013562F5011201359F20
:100F9300F501120135C2F501120135F3F501120114
:100FA30035FCF50112013506F601120135F4F6019F
:100FB300120135EAF701120135E0D001120135DFE4
:100FC300D401120135E5D40112013520DC011201EF
:100FD3003539E10112013578E1031201350EE203DF
:100FE30012013524E2031201359AE2031201350E90
:100FF300E3031201354CE303120135C0E30312018D
:101003003539E40312013542E4031201354EE4039A
:1010130012013563E403120135A1E403120135B76C
:10102300E40312013516E5031201352BDD0312012A
:101033003538DD0312013552DD0312013591DD032D
:10104300120135CFDD0312013534DE0312013549B8
:10105300DE0312013554DE0312013561DE03120192
:101063003578DE0312013586DE0312013591DE0386
:101073001201359DDE03120135ACDE03120135B7D3
:10108300DE03120135DADE0312013581DF031201BB
:101093003591DF03120135ABDF03120135C8DF03DE
:1010A300120135E4DF0312013509E003120135149F
:1010B300E00312013529E0031201353DE00312017B
:1010C300359EE003120135A4E003120135AAE003C3
:1010D300120135B0E003120135C8E003120135FBFC
:1010E300E003120135F2CF0212013576D00212016C
:1010F3003525D10212013584D202120135A5D4025D
:1011030012013591D502120135C6D502120135E817
:10111300D50212013597D6021201358FD80212017A
:1011230035B8D8021201354AD9021201357CD902E9
:1011330012013589D902120135E0D90212013506AF
:10114300DA0212013573DC0212013576DD02120177
:1011530035CEDD0212013581C1021201358BC20287
:1011630012013572C3021201357CC3021201359E8E
:10117300C302120135AAC30212013543C50212018B
:101183003572C5021201358EC602120135E7C60259
:101193001201354DC8021201352CC90212013588DE
:1011A300C902120135F5C90212013530CA02120112
:1011B300356FCA0212013528CD0212013542CD0224
:1011C300120135CECD02120135DCCD0212013535C7
:1011D300CE0212013543CE02120135B6CE02120100
:1011E300351ACF0212013564CF02120135D38C03B5
:1011F300120135F58C031201351B8F0312013530B3
:101203009203120135489303120135FB9303120134
:1012130035DD94031201351989041201353E890421
:10122300120135B0890412013548BC03120135514E
:10123300BC031201355ABC0312013531BD0312013F
:1012430035E2BE0312013518BF0312013552BF0345
:1012530012013588BF03120135C2BF03120135F6EF
:10126300BF0312013522C0031201356BC003120103
:1012730035A5C003120135EEC00312013546C10383
:101283001201357BC103120135D6C103120135109A
:10129300C20312013561C20312013597C203120161
:1012A30035D1C203120135FFC20312013522C30334
:1012B300120135C0A304120135ECA3041201354712
:1012C300A40412013551A40412013561A4041201CE
:1012D30035A7B403120135BCB40312013518B503A5
:1012E30012013583B503120135CBB5031201353D28
:1012F300B6031201356CB6031201357AB603120137
:1013030035DCB6031201351AB70312013535B703BD
:10131300120135D0B70312013579B803120135FC38
:10132300B80312013535B903120135C0B9031201EF
:101333003517BA0312013576BA0312013588BA0399
:10134300120135AEBA03120135B7BA0312013511D2
:10135300BC03120135BFFE011201359DFF011201CD
:1013630035A7FA03120135ECFA0312013532FB03F8
:10137300120135C4FC03120135F2A2041201350D2A
:10138300A3041201351DA30412013574A304120131
:10139300356BA40412013505F90212013525F90252
:1013A3001201352BFA0212013577FA021201359731
:1013B300FA02120135EAFA0212013557FB02120151
:1013C300359DFB0212013501FC02120135ADFE020F
:1013D3001201352EFF02120135729D04120135A34D
:1013E3009D04120135CD9D04120135ED9D041201BA
:1013F300354B9E04120135D583011201352E86012A
:10140300120135BF8B01120135F18B011201351C1D
:101413008C01120135108D01120135938D011201DA
:10142300356B8E01120135968E01120135C18E0185
:10143300120135EC8E01120135178F011201354E61
:101443008F01120135798F01120135A48F01120129
:10145300351690011201358C9001120135F7900178
:101463001201353A91011201358D9101120135D2E4
:101473009101120135449201120135BA9201120110
:10148300352593011201358194011201358F9501A0
:10149300120135479601120135EE9601120135937B
:1014A30097011201353A9801120135DF98011201B3
:1014B300358899011201352F9A01120135039B01D9
:1014C300120135AB9B01120135789C0112013506DF
:1014D3009D01120135DD9D0112013552980412015F
:1014E300357B9804120135319904120135D78304F1
:1014F3001201350084041201352185041201353CA3
:1015030094041201355994041201352E95041201E5
:1015130035CFA60412013566FF03120135C2600000
:10152300120135D3630012013566650012013511CE
:101533006600120135B466001201354C67001201D2
:10154300357B6700120135346C00120135CB6C001A
:10155300120135076E001201356F6E00120135233B
:101563006F00120135D97100120135137200120197
:10157300357D7200120135DB7200120135397300BB
:10158300120135967300120135857400120135CBB3
:101593007400120135107500120135337500120104
:1015A300357A76001201358E760012013597770071
:1015B300120135D677001201350278001201355534
:1015C3007800120135767800120135B478001201E3
:1015D30035FA7A001201353B7B00120135D67B00C8
:1015E300120135417C001201357A7D001201359AD2
:1015F3009904120135C39904120135799A04120131
:1016030035FA81041201350A82041201354F82042E
:101613001201352D8304120135C583041201356E81
:101623008704120135A18704120135BF8704120113
:101633003558880412013575880412013507890469
:1016430012013536A704120135B49E04120135C4C4
:101653009E04120135D89E04120135E09F04120145
:101663003533EF03120135DDEF031201351FF203AA
:1016730012013508FD0312013522FD0312013585E0
:10168300FD03120135F3FD03120135A9FE03120117
:1016930035C8FE03120135D8FE0312013517FF03C7
:1016A30012013554FF03120135BE8A04120135F8C5
:1016B3008A041201356B8B04120135B58B041201B8
:1016C30035F48B04120135068C041201353B8C046E
:1016D3001201355F8C04120135AE8C04120135E022
:1016E3008C04120135728D04120135EE8D04120142
:1016F30035DFE80312013508E90312013531E90347
:10170300120135F9E90312013544EA03120135FBED
:10171300EB03120135968F04120135C98F041201B0
:1017230035459004120135659004120135CA9004C1
:101733001201351291041201351591041201352954
:10174300D40312013542D403120135D8D403120154
:1017530035C9D5031201351ED8031201355ED803EE
:10176300120135A0D803120135AE7D00120135BF39
:101773007D00120135087E00120135347E0012010E
:1017830035547E00120135F37E00120135C67F0009
:10179300120135008E041201354F8E04120135DF1C
:1017A3008E04120135698F04120135F87F0012018E
:1017B3003506F803120135EDF90312013559FA0321
:1017C300120135A4FA031201350A970412013533C5
:1017D3009704120135E997041201352A9C0412017A
:1017E30035539C04120135099D04120135E29A0414
:1017F3001201350B9B04120135C19B041201350004
:10180300800412013567800412013524810412011A
:1018130035A281041201350DEC0312013540EC03AE
:1018230012013548ED031201356CEE031201353B0D
:10183300A20312013517A3031201355EA30312019C
:10184300359BA30312013509A40312013563A403D5
:10185300120135D3A403120135ABA5031201359E42
:10186300A60312013515A703120135B8A803120107
:101873003545A903120135B8A90312013534AA036A
:101883001201354BAA0312013578AB03120135D28D
:10189300AB03120135008002120135988402120154
:1018A30035898702120135B28702120135C98702D1
:1018B300120135F28702120135A48802120135881C
:1018C3008A02120135C28B02120135F6900212010F
:1018D300352F91021201357391021201357F920265
:1018E3001201358ECF03120135E9CF0312013512F0
:1018F300D003120135C8D00312013531D1031201CF
:10190300353FD203120135ECD30312013509A60486
:101913001201353FFF02120135E69F041201350F14
:10192300A004120135ABA0041201356EA604120106
:10193300350AA704120135B09204120135D87F008D
:10194300A2E792D65002F40430F70663F0FF05F0E5
:10195300B3400384800384F40430D60563F0FF05A9
:10196300F022E066701008A3E066700A08A3E06640
:10197300700408A3E06622C3E7960809E7960809FE
:10198300E7960809E79622C3E09608A3E09608A322
:10199300E09608A3E09622C008C3E096F50808A3E2
:1019A300E096420808A3E096420808A3E09645089B
:1019B3007001D3D00822080808E630E711122195F8
:1019C3001219D1080808C64480C618181822181816
:1019D30018E9799EC608CAC608CBC608CCC6C37028
:1019E300207996CACBCC7019798ECBCC70137986BB
:1019F300CC700EF9802ACA33CACB33CBCC33CC3369
:101A03001930E7F2CCCBCA3350147004EA30E00D3E
:101A1300E4CA3ACACB3BCBCC3CCC500209C3E91352
:101A2300C6CC182313C6CB18C6CA18C6F922E62695
:101A330018461846184622E7271947194719472217
:101A4300181818E60846087009E626087005E633F4
:101A5300F4220822191919E70947097009E7270928
:101A63007005E733F4220922E6084608C313460843
:101A7300336002E633F422E7094709C31347093306
:101A83006002E733F422121A6B6025121A7A60207F
:101A9300121A317003021A3A080808E76670101820
:101AA30019E766700A1819E76670041819E76622C1
:101AB300F422121A6B601B121A7A6016121A317012
:101AC30007121A3A600CB322C0D0121A3A7005D02A
:101AD300D022C32233D0D0501330E0EBC3E79608B3
:101AE30009E7960809E7960809E7962220E0E4E665
:101AF300970809E6970809E6970809E6972200126E
:101B03001A6B604F121A7A6012E7548066F6121A43
:101B1300437011121A3A703B090909F4F618F618C2
:101B2300F618F622121A577015121A3108080860AF
:101B3300EAE6447FF618768018E4F618F622121ABD
:101B4300316016121A3A7012E4F608F608F608E63F
:101B53005480F609090918181822EAC0E0EBC0E01E
:101B6300ECC0E0EDC0E0E687F0A4FBACF008E6874C
:101B7300F0A42CFCE435F0FA1809E687F0A42C4B0A
:101B830060027401CA35F0FCE433FB09E687F0D246
:101B9300F7A42CCB35F0FC1908E687F0A42BCC3541
:101BA300F0FBE433FD0819E687F0D2E7A42C4ACB17
:101BB30035F0CD3400FC09E687F0D2E7A42DCC350F
:101BC300F0FDE433FA0918E687F0D2F7A42CCD35FB
:101BD300F0CA3400FC08E687F0D2E7D2F7A42ACC97
:101BE30035F07A7E20E70B0ACB33CBCD33CDCC3324
:101BF300CC33CB3350147004ED30E00ED2F1E4CD8E
:101C03003DCDCC3CCC3B5005DA05C2F1EB547FC64D
:101C13003308E63392F0FBE73309E733C39A502DD9
:101C23002B70190C0D4C4D70151806E608C3337054
:101C33000D20F10AA2F013F6E418800B4024E4F619
:101C430030F002768018F618F618F68024D33B1489
:101C5300501074FFA2F013F6187680E418F618F605
:101C6300800FA2F013F618E63303F618ECF618ED1E
:101C7300F6D0E0FDD0E0FCD0E0FBD0E0FA22121A6F
:101C83007A6046121A6B603DE9687008F618F61818
:101C9300F618F622748067F7121CB50909097480D7
:101CA30067F722121A6B601D121A7A700519191937
:101CB300801A121A43701F121A57C37003E6673350
:101CC30019191940071818182208080874FFF6187C
:101CD300F618F618F622121A576017121A3A7021DC
:101CE30092F0121A317019501720F01408080809DD
:101CF3000909E7F61819E7F61819E7F61819E7F6C8
:101D030022121A3160E6E869701F0808E62480F69B
:101D130008E436F618547FB47F0CE654806007F667
:101D2300E418F618F622181822E9C6CC08C6CD081E
:101D3300C6CE08C6CFC0E0E8C0E0EAC0E0EBC0E032
:101D430009E9F809E7FA09E7FBE6F918E6F8C3EC4D
:101D530098ED99EE9AEBC2E7F5F0EFC2E795F050F4
:101D63000E600CEBCFFBEACEFAE9CDF9E8CCF8EA4A
:101D7300A2E7D2E7FAEB33FB13F5F0EEA2E7D2E7E3
:101D8300FEEF33FFC5F013A2E730E601B313C5F04E
:101D9300C3C0E0C0F07F00C39BFB605E9418600F7C
:101DA300401D14601AD0E023F9D0E0F8021E878AA0
:101DB300F0E9486003D2F0E4AFF0FAF9F8803BEBC6
:101DC30030E40D89F0EA6003D2F0E4AFF0F9CAF829
:101DD300EB30E30D88F0EF6002D2F0AFF0E4CAC954
:101DE300F8EB54076014FBC3EA13FAE913F9E81399
:101DF300F8EF135002D2E0FFDBEDD0E0C0E030E7B4
:101E030039C3E49FFFF5F0EC98FC42F0ED99FD42F5
:101E1300F0EE9AFE42F0D0E0F9D0E0F8E5F0607A17
:101E2300E923F9EE20E742D8028067C3EF33FFECE2
:101E330033FCED33FDEE33FE80EAEC28FCED39FD97
:101E4300EE3AFED0E023F9D0E0F84002801BC3EE67
:101E530013FEED13FDEC13FCEF135002D2E0FF0869
:101E6300B800067F7F74FF802EEF3350178CF0206D
:101E7300F00260100CBC000C0DBD00080EBE000487
:101E830008E860DFE933E813FFEE2313FE4F4D4C00
:101E93008008E95480FFE4FEFDFCEE33EF33F47079
:101EA30004FCFD7E80D0E0FBD0E0FAD0E0F8D0E087
:101EB300CFC618CEC618CDC618CCC6F922121A6BD7
:101EC300700418181822121A7A700D74FFF6181974
:101ED300F61819F61819F622E7548066F6121A3125
:101EE300700F121A3A70F014F608F608F608F68026
:101EF300D1121A3A700CF608F608768008E6447F89
:101F030080EC121A5A700C121A4660BFE65480F61F
:101F1300E480BB121A46700519191980A5E8697087
:101F23000C763F18768018F618F6E8F922E6CDC04D
:101F3300E018ECC0E0E633CD33CDD313F6E719FC5C
:101F4300E7191933CC33C3947F400ECD9D50240839
:101F5300E65480F6E418F6800FF4043D1450140898
:101F6300E6447FF6187680E418F618F6D0E0FCD045
:101F7300E0FD22CCD313CCFD18E4C6CBC0E018E4BB
:101F8300C6CAC0E00808ED08C633E613F618E43302
:101F9300C675F003C3CA97CA09CB97CB199C4004F3
:101FA3007D08802EBD000302206916B6FF050606D4
:101FB300081618C3CA33CACB33CB33CA27CA09CBD3
:101FC30037CB193CC37D08803E187D0820E75CC6EB
:101FD30033C6CA33CACB33CB33DDF1D5F0EB30E7AD
:101FE3007BCA97CA09CB974ACB199C406F4B702584
:101FF300E620E0218066187D08C3CA97CA09CB97FB
:10200300CB199CD3C633C6CA33CACB33CB3350C9DF
:10201300DDE7D5F0E1D3E4C636C608C636C608C642
:1020230036C608C636C61818188031C3CA97CA09F7
:10203300CB97CB199CB34097C633C6CA33CACB33AD
:10204300CB33DD34D5F02EC6A2E0C640C8CA27CABA
:1020530009CB37194A70BECB3CB480B90808E633C4
:1020630008E633601F181818D0E0FAD0E0FBD0E080
:10207300FCD0E0FD22187D08CA27CA09CB37CB194B
:102083003CD3808013F618E4B67F11F618B6FF0E22
:10209300F618C60470D20808768080CAF618F618B7
:1020A300F680C5080808EAC0E0EBC0E086F0E7A4C4
:1020B300FA180986F0E7A42AFA180986F0E7A42A91
:1020C300FA180986F0E7A42AFA1986F0E7A4FBE5D3
:1020D300F02AFA190886F0E7A42BFBE5F03AFA197F
:1020E3000886F0E7A42BFBE5F03AFA18180986F006
:1020F300E7A4C5F02BFBE43AFA1908E7C5F0C6A438
:1021030026F6E5F03BFBE43AFA1886F0E7A4F6E599
:10211300F00826F6E43B08F6E43A08F6D0E0FBD0F4
:10212300E0FA22E4CFC0E0E4CEC0E0E4CDC0E0E4D6
:10213300CCC0E075F020E626F608E633F608E63371
:10214300F608E633F6181818EC33FCED33FDEE33DE
:10215300FEEF33FFC3EC9709ED9709EE9709EF976D
:10216300191919400FFFEC97FC09ED97FD09EE973C
:10217300FE191906D5F0BFECF709EDF709EEF709DB
:10218300EFF7191919D0E0FCD0E0FDD0E0FED0E064
:10219300FF22181818E4C396F608E496F608E496A6
:1021A300F608E496F6226017080808C6A2E713C6E5
:1021B30018C613C618C613C618C613C6D5E0E92237
:1021C3006016080808C6C313C618C613C618C61374
:1021D300C618C613C6D5E0EA2270090808082260AB
:1021E30016181818C6C333C608C633C608C633C67E
:1021F30008C633C6D5E0EA22E627F60809E637F62D
:102203000809E637F60809E637F622E026F608A3BA
:10221300E036F608A3E036F608A3E036F622E02619
:10222300F008A3E036F008A3E036F008A3E036F0A8
:1022330022C3E697F60809E697F60809E697F60833
:1022430009E697F622C3E096F008A3E096F008A308
:10225300E096F008A3E096F022E657F60809E65761
:10226300F60809E657F60809E657F622E056F60897
:10227300A3E056F608A3E056F608A3E056F622E0DC
:1022830056F008A3E056F008A3E056F008A3E05682
:10229300F022E0F608A3E0F608A3E0F608A3E0F6D0
:1022A30022E6F008A3E6F008A3E6F008A3E6F0228E
:1022B300E0FAA3E0FBA3E0FCA3E0FD22EAF0A3EB3A
:1022C300F0A3ECF0A3EDF022E0F8A3E0F9A3E0FA29
:1022D300A3E0FB22E8F0A3E9F0A3EAF0A3EBF022EA
:1022E300CAC0E0E6F0A308DAFAD0E0FA22CAC0E0F6
:1022F300E0A3C582CCC582C583CDC583F0A3C582C7
:10230300CCC582C583CDC583DAE6D0E0CA22C3E457
:1023130098F8E499F91223528026C3E49AFAE49BCD
:10232300FBE920E7E9122352E498F8E499F922C380
:10233300E498F8E499F9122352E498F8E499F9C37C
:10234300E49AFAE49BFB22EB20E7CFE920E7E0B92C
:102353000010BB0008E88AF084F8AAF022E4FBC866
:10236300FA22EB70227B10C833C8C933C933500734
:10237300C39AC3DBF280069A50012ADBEAC833F41E
:10238300C8C933F4C9FA2275F008E4C833C8C9339D
:10239300C933C99AC99B5004C92AC93BD5F0ECFB80
:1023A300C833F4C8E4C9FA22600D08C6A2E713C60D
:1023B30018C613C6D5E0F322600C08C6C313C618AB
:1023C300C613C6D5E0F422700422600D18C6C333C9
:1023D300C608C633C6D5E0F41822251810AF08F591
:1023E30018400C15198008F51840021519D2AF22B0
:1023F30000C0D0251810AF08F518500C0519800837
:10240300F51850020519D2AFD0D0222518F5821045
:10241300AF08F518400C15198008F5184002151976
:10242300D2AF851983222518F582E43519F5832265
:102433002518F8E43519F9222518FAE43519FB2291
:102443002518FCE43519FD22E4732518C582C0E084
:10245300E51934FFC583C0E0E518C3958224F8105D
:10246300AF088583198582188008858319858218AA
:10247300D2AFCEF0A3E520F0A37808E608F0A3DE00
:10248300FAEFF0A3E58124FAF8E608F0A3E608F0F2
:10249300A3E608F0A30808E608F0A3E608F0A315EE
:1024A300811581D0E0FED0E0F8158115811581E812
:1024B300C0E0EEC0E0222518C582C0E0E51934FF74
:1024C300C583C0E0E518C3958224F910AF0885835E
:1024D300198582188008858319858218D2AFCEF0BA
:1024E300A3E520F0A37808E608F0A3DEFAEFF0A353
:1024F300E58124FBF8E608F0A3E608F0A30808E664
:1025030008F0A3E608F0A315811581D0E0FED0E022
:10251300F815811581E8C0E0EEC0E02285198385B6
:102523001882E0A3FEE0A3F5207808E0A3F608DF15
:10253300FAE0A3FFE0A3C0E0E0A3C0E0E0A3C0E0B3
:10254300E0A3C0E0E0A3C0E010AF08858218858354
:10255300198008858218858319D2AFD083D082026F
:102563000132851983851882E0A3FEE0A3F5207864
:1025730008E0A3F608DFFAE0A3FFE0A3C0E0E0A3CE
:10258300C0E0E0A3C0E0E0A3C0E010AF088582187C
:102593008583198008858218858319D2AFD083D0AB
:1025A3008222C0D02518C582C0E0E51934FFC58357
:1025B300C0E0E518C3958224F310AF08858319851D
:1025C30082188008858319858218D2AFC8F0A3E9E1
:1025D300F0A3EAF0A3EBF0A37908E709F0A3D8FA94
:1025E300ECF0A3EDF0A3EEF0A3EFF0A3D0E0F0A3A3
:1025F300D0E0F0A3D0E0F0A3E520F0A3E5F0F0A352
:1026030022851983851882E0C0E0A3E0F9A3E0FAEC
:10261300A3E0FBA37808E0F608A3DFFAE0FCA3E05D
:10262300FDA3E0FEA3E0FFA3E0C0E0A3E0C0E0A3BE
:10263300E0F5D0A3E0F520A3E0A3F5F010AF088503
:1026430083198582188008858319858218D2AFD0B3
:1026530082D083D0E0F8D0E0327404800674028024
:10266300027401C0E0F40412240ED0E01222E3222B
:102673007404800474028000CCC0E0EDC0E0E5186F
:10268300C39CCCAD1950011D10AF068C188D198059
:10269300068C188D19D2AF1222F0D0E0FDD0E0FCE9
:1026A30022D083D082E9C0E0E493A3C386F0C5F0CF
:1026B30095F0F908E493A386F0C5F095F0700BE468
:1026C30093A3C3994005E9048002A3E475F002A42F
:1026D3002582F582E5F03583F583D0E0F9E493A311
:1026E300C0E0E493C0E022D083D082ECC0E0EDC030
:1026F300E0E493A3FCE493A3FDED4C600D122736B5
:10270300EC24FFFCED34FFFD80EFE493A3FCE493A2
:10271300A3FDED4C600D122775EC24FFFCED34FF97
:10272300FD80EFD0E0FDD0E0FCE493A3C0E0E493B0
:10273300C0E022C0E0C3E493960874019396184066
:102743000FE493667008087401936618700070199B
:10275300A3A3C3E49396087401939618A3A3400D0F
:10276300D0E0D0E0D0E0022726A3A3A3A3A3A3D065
:10277300E022C0E0C0F088F0E493667008087401BA
:102783009366187000A8F0A3A3700BD0F0D0E0D02C
:10279300E0D0E0022726A3A3D0F0D0E02274F51204
:1027A30024B9EAFEEBFFEE2434F8EF3400F988088D
:1027B3008909EE2435F582EF3400F583E0F8EE2441
:1027C30037F582EF3400F583E0F50AEC850AF0A4CF
:1027D300FCAAF0850AF0EDA42AFDE82CF8E43DF903
:1027E3007A257B00122352EA850882850983F0F853
:1027F300740758F97401B900028004C333D9FCFA91
:10280300E8131313541FF8EE28F8EF3400F9E82403
:102813005DF582E93400F583E05A6008EE2434F56F
:1028230082EF802CEE2434F582EF3400F583E0C090
:10283300E0EE2436F582EF3400F583E0F5F0D0E0E6
:1028430084A8F0EE28F8EF3400F9E82438F582E99B
:102853003400F583E0F97F0402256574F51224B989
:10286300EAFEEBFFEE2434F582EF3400F583E0C09B
:10287300E0EE2435F582EF3400F583D0E0F08E826C
:102883008F83A3A3A3A3A3A3A3C082C0838E828F9A
:1028930083A3A3A3A3A3E0F8A3E0F9D083D082E0AA
:1028A300C398F508A3E099F509EE247FF582EF3488
:1028B30000F583E064017069EE2480F582EF340053
:1028C300F583E0F8A3E0F98E828F83A3A3A3A3A3E8
:1028D300A3A3E0FCA3E0FD8E828F83A3A3A3A3A302
:1028E300E0FAA3E0FBC3EA9CEB9D5010C3EC98ED28
:1028F30099402EC3EA98EB995027800EC3EA98EBD0
:10290300994007C3EC98ED9940177CE67D04EEFAF5
:10291300EFFB120EC3EE247FF582EF3400F583E460
:10292300F0EE2434F8EF3400F9E8FCE9FDEE243549
:10293300F582EF3400F583E0F8EE2437F582EF34C7
:1029430000F583E0F50AE508850AF0A4F508AAF086
:10295300850AF0E509A42AF509E82508F8E435090C
:10296300F97A257B00122352EA8C828D83F0F87466
:102973000758F97401B900028004C333D9FCFAE89B
:10298300131313541FF8EE28F8EF3400F9E8245D0D
:10299300F582E93400F583E05A6008EE2434F582C9
:1029A300EF802CEE2434F582EF3400F583E0C0E0B1
:1029B300EE2436F582EF3400F583E0F5F0D0E084C1
:1029C300A8F0EE28F8EF3400F9E82438F582E9346A
:1029D30000F583E0F91235DB022859C082C08385F4
:1029E3001882851983E0F8A3E0F9C3EA9CEB9D50B4
:1029F30010C3EC98ED99401BC3EA98EB99501480EF
:102A03000EC3EA98EB994007C3EC98ED994004791B
:102A13000180027900D083D08222EAC39CFAEB9D25
:102A2300FB2274EF1224B99003ACE064086005E064
:102A33006407702A9061C8E060249003DAE0F460D0
:102A43001DE0F875F003A4C8AAF02AF974DC28FE87
:102A5300740339FF8E828F83A3A3A3E07003022B39
:102A630055906060E0C0E0EE2468F582EF3400F535
:102A730083D0E0F0750C4F750D05750800750900DE
:102A8300E5D914F50AE5D95403F50E601774036507
:102A93000E605CE50A6010EE2467F582EF3400F502
:102AA30083E07003022B3A90054AE06401602AEE4A
:102AB3002482F582EF3400F583E060047804800219
:102AC3007800850A08E508C398FA95E0FB120D8B98
:102AD3008A088B09EA450970051210C78074EE2431
:102AE30082F582EF3400F583E070048A0C8B0DE5E8
:102AF3000A6012850C82850D83F50BE5D9F0A315C9
:102B03000BE50B70F6EE2482F582EF3400F583E0DB
:102B1300604474FC250AF50A780C122660AC0AA9F5
:102B23000EEEFAEFFB120F5F74021223F3E9702625
:102B3300AA08AB09121805793D8E828F83A3A3A33C
:102B4300A3E0FA7B00120C5FEEFAEFFB120EDB122E
:102B53000F71790080747403650E6056850A1075D1
:102B630011007810122660AC0CAD0DAA08AB091247
:102B73000F3B74021223F3EE2468F582EF3400F561
:102B830083E064807004747F8001E0F50C780C129C
:102B93002664E50EF50C780C122664A90AAC08AD80
:102BA300099003DAE0FA7B00120C2374021223F378
:102BB30080139003ACE06408600BAC0CAD0DEEFA2F
:102BC300EFFB120FCB1210D379017F0A0225657434
:102BD300F51224B974FC1223DDEAFEEBFF8908A287
:102BE300AFE433F509C2AF806AEE2463F8EF340033
:102BF300F97A007B00A2AFE433F50AC2AF88828979
:102C030083E0FCA3E0FDEC4D603A88828983E0FA1F
:102C1300A3E0FB8A828B83E0FCA3E0FD88828983A7
:102C2300ECF0A3EDF08A828B83E4F0A3F088828931
:102C330083E0FCA3E0FDEC4D700A88828983A3A3A3
:102C4300E4F0A3F0E50AA2E092AF1218059004EDB8
:102C5300E004F0EE2463F582EF3400F583E0F8A39B
:102C6300E0F9E849603DEE2463F582EF3400F58333
:102C7300E02402FAA3E03400FBEA2402F50AEB3471
:102C830000F50B780A1226608A828B83E0FCA3E0AE
:102C9300F9EEFAEFFB120EFF74021223F3E970034D
:102CA300022BEC9004EDE060639004EEE0F89004F6
:102CB300EDE0C398500C7402650870509004EFE087
:102CC300604A8E828F83A3A3A3A3E085188285190C
:102CD30083F0A3E4F09004EDE0F87402122429E8F1
:102CE300F0A3E4F09004EDE0F89004ECE028F07435
:102CF30002122429AC82AD83851882851983AA82A6
:102D0300AB837901120C2F9004EDE4F0E509A2E006
:102D130092AF74041223F30228590000008521871F
:102D23008522C622C0E0C0D0E8C0E0E9C0E0EAC026
:102D3300E0EBC0E0ECC0E0EDC0E0EEC0E0C008C0F6
:102D430009C00AC00BC082C083C0F0A2AFE433FE47
:102D5300C2AF759B00906182E0A2E05012E591A2A0
:102D6300E0500C7591FE740165217003122A25E071
:102D7300A2E55051E591A2E5504B7591DF9003AC6C
:102D8300E064076005E06408702374016521703511
:102D930079019003DAE0FA75F003A4CAA8F028FBDE
:102DA30074DC2AFA74033BFB122BD28018E0640D07
:102DB30070139003CEE004F064287002E4F07A000C
:102DC300E0F91210D9906182E0A2E64003022E6E70
:102DD300E591A2E64003022E6E7591BF9003ACE02D
:102DE3006405700812100112100D8003121007758C
:102DF3002100121067E99003ADF0790012105B1205
:102E03000E397A017B009003ABE0F912132B907813
:102E130003E06442705590054EE014F0704DC2AF6C
:102E2300122E2600782AD0E0F618D0E0F6E59F545B
:102E33000770057509FF800375097FC4C0E0782911
:102E4300E6F50808E65509F509740B78081223BB63
:102E5300D0E02508F8906270E0A2E740F8E8C333B9
:102E6300906272F0906270E0D2E0F0906181E0A233
:102E7300E35009E5E9A2E3500375E9F7A3E0A2E70C
:102E83005009E591A2E7500375917FEEA2E092AF5E
:102E9300D0F0D083D082D00BD00AD009D008D0E0B4
:102EA300FED0E0FDD0E0FCD0E0FBD0E0FAD0E0F9CA
:102EB300D0E0F8D0D0D0E032C0E0C0D0C082C08330
:102EC300906183E0A2E05009E5BFA2E0500375BF23
:102ED300FEE0A2E15009E5BFA2E1500375BFFDE0AA
:102EE300A2E25009E5BFA2E2500375BFFBE0A2E3F3
:102EF3005009E5BFA2E3500375BFF7E0A2E4500910
:102F0300E5BFA2E4500375BFEFE0A2E55009E5BFBA
:102F1300A2E5500375BFDFE0A2E65009E5BFA2E6D4
:102F2300500375BFBFD083D0828088C0E0C0D0E893
:102F3300C0E0E9C0E0EAC0E0EBC0E0ECC0E0EDC017
:102F4300E0C0F0E5A7A2E6500FE5A1A2E6500953C1
:102F5300A7BF75A1BF122F93E5A7A2E5500CE5A16A
:102F6300A2E5500653A7DF75A1DFE5A7A2E150094B
:102F7300E5A1A2E1500375A1FDE5A7A2E2500CE58E
:102F8300A1A2E2500653A7FB75A1FBD0F0022EA429
:102F930074F81224B97521019003ACE0640670152E
:102FA300120F8F8A828B83A3A3A3A3A3A3E0FAA305
:102FB300E0FB120FEFA2AFE433FED2AF9003B2E017
:102FC300640170187A207B009003ABE0F91213BB05
:102FD3007A207B009003ABE0F9121331906182E019
:102FE300D2E6F090054BE0602185C622801690035F
:102FF300B1E064017008E5C654F84405F5C653BE54
:10300300FC122D207401652160E4EEA2E092AF7FF3
:1030130001022565008E238F2485822885832785D9
:103023001882851983E0CEA3E0CF85288285278384
:10303300EBC9EAC8EDCBECCA75F010C3E833C8E9B5
:1030430033C9EA33CAEB33CBC3EA9EF526EB9FF5CC
:1030530025B35004AB25AA26EC33CCED33CDD5F004
:10306300DAAE23AF242274E91224B974F81223DDF3
:10307300851882851983ECF0A3EDF08A088B0990FB
:1030830003ACE024F7C3940550067508010232002F
:10309300120F8F8A0A8B0BAE0AAF0BEE4F7003022F
:1030A30031FDAC08AD097402122429AA82AB831244
:1030B300101F8E828F83A3A3750CFF750DFF750EF2
:1030C300FF750F00780C12226F74021224297510F9
:1030D300FF7511FF7512FF751300781012226F78B8
:1030E3000C791012197A502A780C7910122234753F
:1030F30008017509C8750A00750B007808790C1268
:10310300197A5052850C08850D09850E0A850F0B17
:1031130080507514017515C8751600751700851054
:103123000885110985120A85130B7808790C122278
:10313300347814790812197A401C7508007509004F
:10314300750A00750B017808791012223478087912
:103153000C1221FB800C750801750900750A0075B6
:103163000B00740978081221DC750C19F50DF50EA6
:10317300F50F7808790C1221268E828F83A3A3A3DF
:10318300A3A3A3E0F8A3E0F97AD07B031223528828
:103193000C890DE4F50EF50F7808790C1221FB74F8
:1031A30006122429E0F8A3E0F97AD07B0312235214
:1031B300E8FA8A0CE4F50D7808790C12197A5007AD
:1031C3007808790C1222349003ACE06408600AE0BA
:1031D30064066005E06405702D750C0D780C7908A4
:1031E30012197A4021750CF4750DFF750EFF750FDA
:1031F300FF7808790C1221FB800C75080075090013
:10320300750A00750B00851882851983E0F8A3E021
:10321300F583888278081222A474081223F37F109E
:1032230002256574F71224B9121031900549E06440
:10323300017010906245E4F0A3F053F4F343FE0CE5
:103243005390F3120FDDE5C654804449F5C6E59E5D
:10325300547F644970F8906185740FF0900547E0DE
:10326300F47002A3E0604E900548E0600814601B10
:1032730014602E8040750801750900900547E078B9
:10328300081223CAE508F45280802A7508017509DB
:1032930000900547E078081223CAE508F4529080AD
:1032A30014750801750900900547E078081223CAD0
:1032B300E508F452A079007F0202256574F7122411
:1032C300B9E9FEEAFF74016E700C7A807B0090030B
:1032D300ABE0F912132B903698E493F46008E4936F
:1032E300F9120E2D800953C680E59E547F70FA12A1
:1032F3000FE3900549E064017003120E4590054702
:10330300E0F47002A3E0604B900548E060081460AD
:103313001A14602C803D750801750900900547E07B
:1033230078081223CAE508428080287508017509C8
:1033330000900547E078081223CAE50842908013FD
:10334300750801750900900547E078081223CAE55E
:103353000842A0121031120F8F8A088B09A808A9FE
:1033630009E8496015E5E170FCE82414F582E934C5
:1033730000F583E0F46003E0F5E174016F700A7A0D
:10338300019003ABE0F91213850232BA74ED1224F3
:10339300B98A088B098C0A8D0B7413122429780CB3
:1033A3001222957808790C12197A7510017511C8D3
:1033B30075120075130050127808790C12223478B4
:1033C30010790812197A50168010780C7908122295
:1033D300347810790C12197A40047901800279004B
:1033E3007F0C02256574ED1224B98A088B098C0AB7
:1033F3008D0B7413122429780C122295780C7908FA
:1034030012197A40117808790C122234AA08AB09F0
:10341300AC0AAD0B80227510007511007512007592
:1034230013017810790C122234781079081221FBD9
:10343300AA10AB11AC12AD1380A68A828B837508D8
:10344300FF7509FF750AFF750B0078081222827F4A
:103453000402256574F51224B98C828D83780812D1
:1034630022958A828B837808122248EA2404F8EB97
:103473003400F98C828D83A3A3A3A3E0FCA3E0FD16
:1034830088828983C3E09CF0A3E09DF088828983CE
:10349300C3E09420A3E0944E40268A828B83750870
:1034A300FF7509FF750AFF750BFF78081222218A41
:1034B300828B83A3A3A3A3E02420F0A3E0344EF0E4
:1034C30002343D74F51224B9E9FE900501E0FAA334
:1034D300E0FBEEC333F8E433F9742128F5827481F9
:1034E30039F583E02AF508A3E03BF50978081226AD
:1034F300607A407B427C0F7D0012301874021223E5
:10350300F38A088B098C0A8D0B741078081221C377
:10351300AA08AB097F0402256574F11224B98A0C49
:103523008B0D8C0E8D0F740F122429E0FAA3E0FB90
:103533007411122429E0F508A3E0F509780812268E
:1035430060EA2401F508EB3400F509E4F50AF50B0C
:10355300780C79081220A6750871750902780C7920
:10356300081220A6AA0CAB0DAC0EAD0F12301874C6
:10357300021223F38B09EA450960047A0180027A77
:1035830000EC2AFCED3400FD7413122429E0F8A3A7
:10359300E0F9E8FEE9FFECF8EDF97A717B0212231A
:1035A30052880889098E828F8378081222A4ECF846
:1035B300EDF97A717B021223528A088B097405781C
:1035C300081223CA8E828F83A3A3A3A3E508F0A3C3
:1035D300E509F07F08022565C082C083E990600099
:1035E300F0D083D08222C2AF02000022C0E074F286
:1035F3001225A5A2AFE433FED2AFE589A2E05003C2
:1036030012172D758900C2C5EEF8EEA2E092AF7FC6
:1036130001022604C0E074F21225A5A2AFE433FE32
:10362300D2AFE58AA2E64006E58AA2E75003121765
:103633002D758A00758A00C2EBEEF8EEA2E092AF18
:103643007F01022604C0E0C0D0E8C0E0E9C0E0A2E8
:10365300AFE433F8D2AF758B00C2E8E8F9E8A2E033
:1036630092AFD0E0F9D0E0F8D0D0D0E032C0E0C0E3
:10367300D0E8C0E0E9C0E0A2AFE433F8D2AFC2C7FC
:10368300751A00E8F9E8A2E092AFD0E0F9D0E0F8CB
:10369300D0D0D0E032FFFFFFFFFFFFFFFF74E8123F
:1036A300244D74701223DD7450122429EAF0A3EB25
:1036B300F0A3ECF0A3EDF074BC12242978081222D5
:1036C3009590838E780C1222957808790C121A89BA
:1036D300707174C0122429780C12229590838E780D
:1036E30010122295780C7910121A89705674C4122C
:1036F3002429780C12229590838E781012229578C3
:103703000C7910121A89703B74B81224291226738B
:1037130074B812242912267374B81224291226733A
:1037230074B812242912267374B81224291226732A
:1037330074641224291222B31207A374141223F3FC
:1037430002542B900281780C122295C50FB2E7C563
:103753000F74501224297810122295780C791012C4
:103763001B01900285781012229574A812242978DF
:103773001412229578107914121B01780C79101207
:103783001C81900289781012229574AC1224297836
:103793001412229578107914121B01780C791012E7
:1037A3001C8190835E7810122295780C7910121B7D
:1037B300017464122429780C1222A4900A24780C30
:1037C30012229574501224297810122295780C79BC
:1037D30010121B01900285781012229574AC1224EA
:1037E30029781412229578107914121B01780C7918
:1037F30010121CA6900289781012229574A8122424
:1038030029781412229578107914121B01780C79F7
:1038130010121C8190835E7810122295780C791017
:10382300121B017460122429780C1222A4900A241A
:10383300780C12229574A8122429781012229578F4
:103843000C7910121B01900281781012229574AC2E
:10385300122429781412229578107914121B0178F6
:103863000C7910121C8190028978101222957450E1
:10387300122429781412229578107914121B0178D6
:103883000C7910121CA690835E7810122295780C86
:103893007910121B01745C122429780C1222A49053
:1038A3000A24780C12229574AC122429781012225F
:1038B30095780C7910121B019002817810122295D1
:1038C30074A8122429781412229578107914121BE3
:1038D30001780C7910121CA690028578101222959B
:1038E3007450122429781412229578107914121B1B
:1038F30001780C7910121C8190835E781012229546
:10390300780C7910121B017458122429780C122296
:10391300A474B0122429780C12229590838E781007
:10392300122295780C7910121A89703974B4122402
:1039330029780C12229590838E7810122295780C98
:103943007910121A89701E74B8122429780C122265
:103953009590838E7810122295780C7910121A891B
:10396300700302526374B0122429780C12229574E6
:10397300B01224297810122295780C7910121B01A9
:1039830074B4122429781012229574B4122429785D
:103993001412229578107914121B01780C791012E5
:1039A3001CA674B8122429781012229574B8122414
:1039B30029781412229578107914121B01780C7946
:1039C30010121CA6AA0CAB0DAC0EAD0F1207A974F6
:1039D300081224291222BF74B0122429780C12224F
:1039E3009574081224297810122295780C791012F4
:1039F3001B0174B0122429780C1222A474B412246B
:103A030029780C1222957408122429781012229511
:103A1300780C7910121B0174B4122429780C122229
:103A2300A474B8122429780C12229574081224293C
:103A33007810122295780C7910121B0174B8122495
:103A430029780C1222A485080C85090D850A0E8598
:103A53000B0F780C7908121B0174C01224297810FB
:103A630012229574C01224297814122295781079A1
:103A730014121B01780C7910121CA674C412242989
:103A8300781012229574C41224297814122295787E
:103A9300107914121B01780C7910121CA6AA0CAB16
:103AA3000DAC0EAD0F1207A974081224291222BF00
:103AB3007408122429780C1222957808790C121BA9
:103AC3000174C0122429780C122295740812242937
:103AD3007810122295780C7910121B0174C01224ED
:103AE30029780C1222A474C4122429780C1222956A
:103AF30074081224297810122295780C7910121B5D
:103B03000174C4122429780C1222A4900A24780C7C
:103B13001222959083467810122295780C79101210
:103B23001B01780C7908121B017484122429780C68
:103B33001222A4900A24780C1222959083467810BE
:103B4300122295780C7910121B0174C01224297863
:103B530010122295780C7910121B017480122429FB
:103B6300780C1222A4900A24780C12229590834692
:103B73007810122295780C7910121B0174C4122448
:103B8300297810122295780C7910121B01747C127B
:103B93002429780C1222A4900281780C1222959089
:103BA30083467810122295780C7910121B01780C39
:103BB3007908121B017478122429780C1222A4901C
:103BC3000A24780C12229590834678101222957855
:103BD3000C7910121B01746C122429780C1222A484
:103BE300900281780C1222959083467810122295C8
:103BF300780C7910121B01744C122429780C1222B0
:103C0300A4900285780C1222959083467810122294
:103C130095780C7910121B017448122429780C1220
:103C230022A4900289780C12229590834678101270
:103C33002295780C7910121B017468122429780CD0
:103C43001222A4900A24780C1222959083467810AD
:103C5300122295780C7910121B01900285781012AC
:103C63002295780C7910121B017444122429780CC4
:103C73001222A4900285780C122295908346781024
:103C8300122295780C7910121B0190028978101278
:103C93002295780C7910121B017440122429780C98
:103CA3001222A4900A24780C122295900A247810E8
:103CB300122295780C7910121B017454122429785E
:103CC3000C1222A4900A24780C1222959002817877
:103CD30010122295780C7910121B01741C122429DE
:103CE300780C1222A4900A24780C12229590028553
:103CF3007810122295780C7910121B017418122473
:103D030029780C1222A4900A24780C12229590028E
:103D1300897810122295780C7910121B01743C12C9
:103D23002429780C1222A4900281780C12229590F7
:103D330002817810122295780C7910121B017414E9
:103D4300122429780C1222A4900281780C12229555
:103D53009002857810122295780C7910121B017449
:103D630038122429780C1222A4900281780C122292
:103D7300959002897810122295780C7910121B0104
:103D83007410122429780C1222A4900285780C1244
:103D930022959002857810122295780C7910121BC7
:103DA30001740C122429780C1222A4900285780C39
:103DB3001222959002897810122295780C791012AC
:103DC3001B017434122429780C1222A490028978DE
:103DD3000C1222959002897810122295780C791092
:103DE300121B017420122429780C1222A4850810B6
:103DF300850911850A12850B137454122429780C32
:103E03001222957810790C121B01748012242978E0
:103E13000C1222959002897814122295780C791449
:103E2300121B017810790C121C81747C12242978DE
:103E33000C1222959002857814122295780C79142D
:103E4300121B017810790C121CA685080C85090D2C
:103E5300850A0E850B0F74141224297814122295E7
:103E6300780C7914121B017810790C121CA6744C6F
:103E7300122429780C12229574C012242978141262
:103E83002295780C7914121B019002857814122262
:103E930095780C7914121B017810790C121CA674F6
:103EA3004C122429780C12229574C41224297814F4
:103EB300122295780C7914121B019002897814123E
:103EC3002295780C7914121B017810790C121CA618
:103ED30085080C85090D850A0E850B0F740C1224B9
:103EE300297814122295780C7914121B0178107911
:103EF3000C121C8185080C85090D850A0E850B0F94
:103F030074201224297814122295780C7914121B28
:103F1300017810790C121C81748C122429781012E8
:103F230022A47484122429780C1222959002897891
:103F330010122295780C7910121B0174C0122429D7
:103F43007810122295745412242978141222957829
:103F5300107914121B01780C7910121CA6747C12B0
:103F630024297810122295900281781412229578D0
:103F7300107914121B01780C7910121C81747812B9
:103F830024297810122295900285781412229578AC
:103F9300107914121B01780C7910121CA674C0122C
:103FA30024297810122295741412242978141222C9
:103FB3009578107914121B01780C7910121C8174F6
:103FC300C01224297810122295740C122429781413
:103FD30012229578107914121B01780C7910121C97
:103FE300A67448122429781012229574C412242925
:103FF300781412229578107914121B019002897893
:104003001412229578107914121B01780C7910126E
:104013001CA674C01224297810122295742012242D
:1040230029781412229578107914121B01780C79CF
:1040330010121C817488122429780C1222A4748C07
:10404300122429780C122295748C122429781012C8
:104053002295780C7910121B017488122429781088
:1040630012229574881224297814122295781079D3
:1040730014121B01780C7910121CA6AA0CAB0DAC00
:104083000EAD0F12193774041224291222BF74843F
:10409300122429780C122295C50FB2E7C50F90029E
:1040A300857810122295780C7910121B01748012F6
:1040B300242978101222959002817814122295787F
:1040C300107914121B01780C7910121CA674C412F7
:1040D3002429781012229574541224297814122258
:1040E3009578107914121B01780C7910121CA674A0
:1040F30078122429781012229590028978141222BA
:104103009578107914121B01780C7910121CA6747F
:10411300C4122429781012229574141224297814B5
:1041230012229578107914121B01780C7910121C45
:10413300817448122429781012229574C0122429FC
:10414300781412229578107914121B019002897841
:104153001412229578107914121B01780C7910121D
:104163001CA674C41224297810122295740C1224EC
:1041730029781412229578107914121B01780C797E
:1041830010121C8174C412242978101222957420F1
:10419300122429781412229578107914121B0178AD
:1041A3000C7910121CA6851882851983780C1222AB
:1041B300A47404122429780C122295908346781053
:1041C300122295780C7910121B0174741224297829
:1041D3000C1222A4851882851983780C12229590DB
:1041E30083467810122295780C7910121B01747093
:1041F300122429780C1222A47448122429780C1250
:104203002295C50FB2E7C50F741012242978101236
:104213002295908346781412229578107914121BF4
:1042230001744412242978141222957810791412F7
:104233001C8174B0122429781412229578107914F1
:10424300121C81780C7910121B01741C122429781A
:1042530010122295908346781412229578107914BF
:10426300121B0174401224297814122295781079B4
:1042730014121CA674B412242978141222957810EF
:104283007914121C81744C12242978141222957803
:10429300107914121B01780C7910121CA6C00CC0E3
:1042A3000DC00EC00F851882851983780C122295D4
:1042B3009002857810122295780C7910121B01C098
:1042C3000CC00DC00EC00F751000751100751200E3
:1042D30075133F740C122429780C122295781079E7
:1042E3000C121C817420122429780C122295781048
:1042F300790C121C817404122429780C12229578EB
:1043030010790C121B017410122429780C122295B7
:1043130074181224297814122295780C7914121C1B
:10432300818518828519837814122295780C791463
:10433300121B017810790C121CA685080C85090D37
:10434300850A0E850B0F780C7910121C81D013D0BF
:1043530012D011D0107810790C121B01D00FD00E8F
:10436300D00DD00C780C7910121CA6C00CC00DC057
:104373000EC00F7404122429780C122295C50FB2B3
:10438300E7C50F9002897810122295780C791012E4
:104393001B01851882851983781412229590028156
:1043A300781012229578147910121B01780C791465
:1043B300121CA6C00CC00DC00EC00F7438122429E5
:1043C3007810122295743C122429780C12229578C5
:1043D30010790C121C817404122429780C12229572
:1043E3007810790C121B01741C122429780C1222E8
:1043F3009574341224297814122295780C791412A6
:104403001CA68518828519837814122295780C7955
:1044130014121B017810790C121CA674C0122429E3
:10442300780C1222957810790C121C81D00FD00EC3
:10443300D00DD00C780C7910121B01D013D012D0F0
:1044430011D0107810790C121CA6C010C011C01224
:10445300C0137404122429780C12229590028578D3
:1044630010122295780C7910121B01C00CC00DC0DC
:104473000EC00F741812242978101222957410128A
:104483002429780C1222957810790C121CA6740436
:10449300122429780C1222957810790C121B0175BD
:1044A3000C00750D00750E00750F3F74141224294E
:1044B3007814122295780C7914121C81740C12242E
:1044C300297814122295780C7914121C818518828C
:1044D3008519837814122295780C7914121B0178AC
:1044E30010790C121CA674C4122429780C1222957C
:1044F3007810790C121C81D00FD00ED00DD00C780F
:104503000C7910121B01D013D012D011D0107810D7
:10451300790C121CA6743012242978101222A47468
:1045230010122429780C12229590834678101222B7
:1045330095780C7910121B017444122429781012F7
:104543002295780C7910121C8174B01224297810EA
:10455300122295780C7910121C8174681224297820
:1045630010122295780C7910121B01741C12242945
:104573007810122295908346781412229578107938
:1045830014121B01744012242978141222957810F6
:104593007914121CA674B412242978141222957863
:1045A300107914121C81746C122429781412229528
:1045B30078107914121B01780C7910121CA6C00C08
:1045C300C00DC00EC00F900281780C12229590830B
:1045D3000E7810122295780C7910121B01C00CC0B2
:1045E3000DC00EC00F74B8122429780C122295C086
:1045F3000CC00DC00EC00F740C122429780C1222AB
:10460300959083467810122295780C7910121B012D
:10461300C00CC00DC00EC00F750C00750D00750EDB
:1046230080750F3F741412242978141222959083F5
:1046330046781012229578147910121B01780C79A0
:1046430014121C81D013D012D011D0107810790C11
:10465300121C81D00FD00ED00DD00C780C79101213
:104663001CA6D013D012D011D0107810790C121BC5
:1046730001D00FD00ED00DD00C780C7910121CA6DF
:10468300C00CC00DC00EC00F851882851983780C2D
:104693001222959002897810122295780C791012C3
:1046A3001B01C00CC00DC00EC00F751000751100AA
:1046B30075120075133F740C122429780C1222957D
:1046C3007810790C121C817420122429780C122280
:1046D300957810790C121C817404122429780C1219
:1046E30022957810790C121B017410122429780C6E
:1046F30012229574181224297814122295780C79B1
:1047030014121C81851882851983781412229578D6
:104713000C7914121B017810790C121CA6781079ED
:1047230008121C81D00FD00ED00DD00C780C79104C
:10473300121B01D013D012D011D0107810790C12A3
:104743001CA6C010C011C012C0137404122429780F
:104753000C1222959002857810122295780C79100C
:10476300121B018518828519837814122295900AE9
:1047730024781012229578147910121B01780C7981
:1047830014121CA6C00CC00DC00EC00F7438122426
:10479300297810122295743C122429780C12229540
:1047A3007810790C121C817404122429780C1222BB
:1047B300957810790C121B01741C122429780C12A1
:1047C300229574341224297814122295780C7914C2
:1047D300121CA68518828519837814122295780CE9
:1047E3007914121B017810790C121CA674C01224C0
:1047F30029780C1222957810790C121C81D00FD0D5
:104803000ED00DD00C780C7910121B01D013D012DE
:10481300D011D0107810790C121CA6C010C011C092
:1048230012C0137404122429780C12229590028961
:104833007810122295780C7910121B0174701224CF
:1048430029781412229590028178101222957814F7
:104853007910121B01780C7914121C81C00CC00D45
:10486300C00EC00F741812242978101222957410E8
:10487300122429780C1222957810790C121CA67434
:1048830004122429780C1222957810790C121B013A
:10489300750C00750D00750E00750F3F741412240E
:1048A300297814122295780C7914121C81740C1235
:1048B30024297814122295780C7914121C818518F6
:1048C300828519837814122295780C7914121B01AE
:1048D3007810790C121CA674C4122429780C1222A5
:1048E300957810790C121C81D00FD00ED00DD00CFE
:1048F300780C7910121B01D013D012D011D010787C
:1049030010790C121CA6742C12242978101222A4DC
:10491300746C122429780C122295C50FB2E7C50FC7
:104923007410122429781012229590834678141259
:10493300229578107914121B0174441224297814D7
:1049430012229578107914121C8174B012242978DC
:104953001412229578107914121C81780C79101294
:104963001B01741C12242978101222959083467817
:104973001412229578107914121B01744012242901
:10498300781412229578107914121CA674B4122488
:1049930029781412229578107914121C81746812E4
:1049A3002429781412229578107914121B01780C9B
:1049B3007910121CA6C00CC00DC00EC00F9002854A
:1049C300780C12229590830E7810122295780C7928
:1049D30010121B01C00CC00DC00EC00F74B81224FE
:1049E30029780C122295C00CC00DC00EC00F740C98
:1049F300122429780C12229590834678101222955E
:104A0300780C7910121B01C00CC00DC00EC00F75BD
:104A13000C00750D00750E80750F3F741412242958
:104A2300781412229590834678101222957814797F
:104A330010121B01780C7914121C81D013D012D0E0
:104A430011D0107810790C121C81D00FD00ED00D1C
:104A5300D00C780C7910121CA6D013D012D011D020
:104A6300107810790C121B01D00FD00ED00DD00C82
:104A7300780C7910121CA6C00CC00DC00EC00F74A8
:104A830074122429780C122295C50FB2E7C50F9032
:104A930002857810122295780C7910121B01851863
:104AA300828519837814122295900A247810122291
:104AB3009578147910121B01780C7914121C81C09B
:104AC3000CC00DC00EC00F751000751100751200DB
:104AD30075133F740C122429780C122295781079DF
:104AE3000C121C817420122429780C122295781040
:104AF300790C121C817404122429780C12229578E3
:104B030010790C121B017410122429780C122295AF
:104B130074181224297814122295780C7914121C13
:104B2300818518828519837814122295780C79145B
:104B3300121B017810790C121CA678107908121C2C
:104B430081D00FD00ED00DD00C780C7910121B0130
:104B5300D013D012D011D0107810790C121CA6C02B
:104B630010C011C012C0137404122429780C12222D
:104B7300959002817810122295780C7910121B01FE
:104B830085188285198378141222959002897810EA
:104B930012229578147910121B01780C7914121CC7
:104BA300A6C00CC00DC00EC00F7438122429781093
:104BB300122295743C122429780C122295781079CC
:104BC3000C121C817404122429780C12229578107B
:104BD300790C121B01741C122429780C122295746F
:104BE300341224297814122295780C7914121CA6F5
:104BF3008518828519837814122295780C791412FA
:104C03001B017810790C121CA674C0122429780C8D
:104C13001222957810790C121C81D00FD00ED00D72
:104C2300D00C780C7910121B01D013D012D011D0F4
:104C3300107810790C121CA6C010C011C012C0133A
:104C43007404122429780C122295900A24781012E5
:104C53002295780C7910121B017470122429781490
:104C630012229590028578101222957814791012E9
:104C73001B01780C7914121C81C00CC00DC00EC02E
:104C83000F741812242978101222957410122429F3
:104C9300780C1222957810790C121CA67404122435
:104CA30029780C1222957810790C121B01750C00CF
:104CB300750D00750E00750F3F74141224297814B6
:104CC300122295780C7914121C81740C1224297801
:104CD30014122295780C7914121C81851882851977
:104CE300837814122295780C7914121B01781079A9
:104CF3000C121CA674C4122429780C122295781065
:104D0300790C121C81D00FD00ED00DD00C780C79F9
:104D130010121B01D013D012D011D0107810790CBF
:104D2300121CA6742812242978101222A4741012BB
:104D33002429780C122295908346781012229578B4
:104D43000C7910121B017444122429781012229535
:104D5300780C7910121C8174B01224297810122255
:104D630095780C7910121C81744C12242978101236
:104D73002295780C7910121B01741C1224297810C7
:104D83001222959083467814122295781079141282
:104D93001B01744012242978141222957810791477
:104DA300121CA674B412242978141222957810794F
:104DB30014121C8174481224297814122295781035
:104DC3007914121B01780C7910121CA6C00CC00DAB
:104DD300C00EC00F7474122429780C122295C50FCB
:104DE300B2E7C50F9002897810122295780C7910DA
:104DF300121B01851882851983781412229590025B
:104E030081781012229578147910121B01780C798D
:104E130014121CA6C00CC00DC00EC00F7510007577
:104E2300110075120075133F740C122429780C12AB
:104E330022957810790C121C817420122429780C85
:104E43001222957810790C121C817404122429788B
:104E53000C1222957810790C121B0174101224295C
:104E6300780C12229574181224297814122295783A
:104E73000C7914121C8185188285198378141222E7
:104E830095780C7914121B017810790C121CA678F2
:104E9300107908121C81D00FD00ED00DD00C780CD5
:104EA3007910121B01D013D012D011D010781079C1
:104EB3000C121CA6C010C011C012C013740412241B
:104EC30029780C122295C50FB2E7C50F900A2478F2
:104ED30010122295780C7910121B018518828519FE
:104EE30083781412229590028578101222957814F3
:104EF3007910121B01780C7914121CA6C00CC00D7A
:104F0300C00EC00F74381224297810122295743CF5
:104F1300122429780C1222957810790C121C8174B2
:104F230004122429780C1222957810790C121B0193
:104F3300741C122429780C122295743412242978B3
:104F430014122295780C7914121CA68518828519DF
:104F5300837814122295780C7914121B0178107936
:104F63000C121CA674C0122429780C1222957810F6
:104F7300790C121C81D00FD00ED00DD00C780C7987
:104F830010121B01D013D012D011D0107810790C4D
:104F9300121CA6C010C011C012C01374041224291D
:104FA300780C1222959002817810122295780C7950
:104FB30010121B01C00CC00DC00EC00F74181224B8
:104FC3002978101222957410122429780C12229534
:104FD3007810790C121CA67404122429780C12225E
:104FE300957810790C121B01750C00750D00750E68
:104FF30000750F3F74141224297814122295780C2B
:105003007914121C81740C122429781412229578B5
:105013000C7914121C818518828519837814122245
:1050230095780C7914121B017810790C121CA67454
:10503300C4122429780C1222957810790C121C8141
:10504300D00FD00ED00DD00C780C7910121B01D0DC
:1050530013D012D011D0107810790C121CA674241E
:1050630012242978101222A47430122429780C12E5
:10507300229574301224297810122295780C791015
:10508300121B01742C1224297810122295742C12ED
:105093002429781412229578107914121B01780CA4
:1050A3007910121CA67428122429781012229574E0
:1050B30028122429781412229578107914121B01CE
:1050C300780C7910121CA674241224297810122249
:1050D30095742412242978141222957810791412C5
:1050E3001B01780C7910121CA6AA0CAB0DAC0EADEB
:1050F3000F1207A974081224291222BF7430122434
:1051030029780C12229574081224297810122295FA
:10511300780C7910121B017430122429780C122296
:10512300A4742C122429780C1222957408122429B1
:105133007810122295780C7910121B01742C12240A
:1051430029780C1222A47428122429780C1222958F
:1051530074081224297810122295780C7910121BE6
:10516300017428122429780C1222A47424122429ED
:10517300780C12229574081224297810122295783B
:105183000C7910121B017424122429780C1222A406
:105193007464122429780C122295900A2078101234
:1051A30022957430122429781412229578107914D8
:1051B300121B01780C7910121C8174641224297853
:1051C3000C1222A47460122429780C122295900ADE
:1051D300207810122295742C122429781412229507
:1051E30078107914121B01780C7910121C817460E9
:1051F300122429780C1222A4745C122429780C122C
:105203002295900A20781012229574281224297866
:105213001412229578107914121B01780C7910124C
:105223001C81745C122429780C1222A47458122451
:1052330029780C122295900A207810122295742452
:10524300122429781412229578107914121B0178EC
:105253000C7910121C817458122429780C1222A480
:105263007464122429780C122295908326781012E4
:105273002295780C7910121B01900A2478101222BF
:1052830095780C7910121CA6900A24780C1222A48B
:105293007460122429780C122295908326781012B8
:1052A3002295780C7910121B01900281781012223A
:1052B30095780C7910121CA6900281780C1222A406
:1052C300745C122429780C1222959083267810128C
:1052D3002295780C7910121B019002857810122206
:1052E30095780C7910121CA6900285780C1222A4D2
:1052F3007458122429780C12229590832678101260
:105303002295780C7910121B0190028978101222D1
:1053130095780C7910121CA6900289780C1222A49D
:10532300900A24780C122295900A24781012229560
:10533300780C7910121B019002817810122295903B
:105343000281781412229578107914121B01780CBB
:105353007910121CA690028578101222959002856E
:10536300781412229578107914121B01780C791095
:10537300121CA69002897810122295900289781443
:1053830012229578107914121B01780C7910121CD3
:10539300A6AA0CAB0DAC0EAD0F1207A9740812240C
:1053A300291222BF900A24780C1222957408122421
:1053B300297810122295780C7910121B01900A2477
:1053C300780C1222A4900281780C12229574081290
:1053D30024297810122295780C7910121B0190025F
:1053E30081780C1222A4900285780C1222957408FD
:1053F3001224297810122295780C7910121B01902F
:105403000285780C1222A4900289780C12229574DA
:10541300081224297810122295780C7910121B0196
:10542300900289780C1222A474901223F37F100245
:10543300251F74E812244D74A41223DD743412243E
:1054430029EAF0A3EBF0A3ECF0A3EDF074801224AF
:1054530029780C1222959002817808122295C50BA7
:10546300B2E7C50B743412242978101222957808F8
:105473007910121B01900285781012229574741210
:105483002429781412229578107914121B017808B4
:105493007910121C81900289781012229574781267
:1054A3002429781412229578107914121B01780894
:1054B3007910121C8190835E7810122295780879F6
:1054C30010121B01743012242978081222A4900AA6
:1054D3002478081222957434122429781012229504
:1054E30078087910121B01900285781012229574A6
:1054F30078122429781412229578107914121B013A
:1055030078087910121CA6900289781012229574DB
:1055130074122429781412229578107914121B011D
:1055230078087910121C8190835E78101222957886
:10553300087910121B01742C12242978081222A452
:10554300900A247808122295747412242978101270
:10555300229578087910121B01900281781012228B
:1055630095747812242978141222957810791412DC
:105573001B0178087910121C81900289781012227D
:105583009574341224297814122295781079141200
:105593001B0178087910121CA690835E78101222E2
:1055A3009578087910121B0174281224297808129F
:1055B30022A4900A24780812229574781224297858
:1055C3001012229578087910121B0190028178102D
:1055D3001222957474122429781412229578107962
:1055E30014121B0178087910121CA69002857810FA
:1055F3001222957434122429781412229578107982
:1056030014121B0178087910121C8190835E7810A4
:1056130012229578087910121B0174241224297818
:10562300081222A4747C12242978081222959083EC
:105633008E781012229578087910121A89702F909B
:10564300838E7808122295780C7908121A89701EB5
:105653007484122429780812229590838E7810126C
:10566300229578087910121A897003025E0A747CF5
:105673001224297810122295747C12242978081296
:10568300229578107908121B01850C08850D098570
:105693000E0A850F0B7808790C121B017810790814
:1056A300121CA67484122429780812229574841279
:1056B3002429781412229578087914121B01781082
:1056C3007908121CA6AA10AB11AC12AD131207A9CC
:1056D3008518828519831222BF747C1224297808C5
:1056E30012229585188285198378101222957808DD
:1056F3007910121B01747C12242978081222A485C4
:1057030018828519837808122295780C7908121B60
:105713000174841224297808122295851882851928
:1057230083781012229578087910121B0174841261
:10573300242978081222A4900A247808122295902A
:105743008346781012229578087910121B01745839
:1057530012242978081222A4900281780812229533
:10576300908346781012229578087910121B0174E1
:105773005412242978081222A49002857808122250
:1057830095908346781012229578087910121B01A0
:10579300745012242978081222A4900289780812DE
:1057A3002295908346781012229578087910121B5F
:1057B30001744C12242978081222A4900A24780830
:1057C30012229590830E7810122295780879101280
:1057D3001B01744812242978081222A490028178AC
:1057E3000812229590830E7810122295780879106A
:1057F300121B01742012242978081222A490028516
:10580300780812229590830E7810122295780879E1
:1058130010121B01741C12242978081222A490026E
:1058230081780812229590832A781012229578089D
:105833007910121B01744412242978081222A490AF
:105843000285780812229590832A7810122295787F
:10585300087910121B01744012242978081222A41B
:10586300900A247808122295900A2478101222951F
:1058730078087910121B01743C122429780812222B
:10588300A490028178081222959002817810122246
:105893009578087910121B017418122429780812BC
:1058A30022A490028578081222959002857810121E
:1058B300229578087910121B017414122429780890
:1058C3001222A490028978081222959002897810F6
:1058D30012229578087910121B0174381224297842
:1058E300081222A4744812242978081222957414E9
:1058F300122429781012229578087910121B01744A
:10590300501224297810122295747C1224297814B9
:1059130012229578107914121B0178087910121C41
:10592300A674481224297810122295741812242977
:10593300781412229578107914121B0178087910C3
:10594300121CA67454122429781012229578107907
:105953000C121B0178087910121C8174101224296F
:1059630078081222A474201224297808122295742C
:1059730038122429781012229578087910121B0105
:10598300744C1224297810122295747C12242978DD
:105993001412229578107914121B017808791012C9
:1059A3001C81743C122429781012229590830E785E
:1059B3001412229578107914121B01900281781425
:1059C30012229578107914121B0178087910121C91
:1059D300A6745812242978101222957810790C1283
:1059E3001B0178087910121C817420122429781065
:1059F30012229578087910121C8174441224297894
:105A030010122295741812242978141222957810F2
:105A13007914121B0178087910121CA674441224FD
:105A230029781012229574141224297814122295BD
:105A330078107914121B0178087910121CA67420AF
:105A430012242978101222957484122429781412AE
:105A5300229578107914121B0178087910121CA66C
:105A6300740C12242978081222A4743C1224297875
:105A73000812229590830E781012229578087910D7
:105A8300121B019002857810122295780879101262
:105A93001B0174581224297810122295747C122445
:105AA30029781412229578107914121B0178087939
:105AB30010121CA6741C1224297810122295743813
:105AC300122429781412229578107914121B017864
:105AD300087910121CA6744C1224297810122295EE
:105AE3007810790C121B0178087910121C81741C30
:105AF300122429781012229578087910121C8174C7
:105B0300401224297810122295741812242978142B
:105B130012229578107914121B0178087910121C3F
:105B2300A674401224297810122295741412242981
